:100000000C9424010C9455010C9455010C94550149
:100010000C9455010C9455010C9455010C94550108
:100020000C9455010C9455010C9455010C945501F8
:100030000C9455010C9455010C9455010C945501E8
:100040000C9455010C9455010C9455010C945501D8
:100050000C9455010C9455010C9455010C94CF0649
:100060000C9455010C94A3070C9479070C9455013A
:100070000C9455010C9455010C9455010C945501A8
:100080000C9455010C9455010C9455010C94550198
:100090000C9455010C9455010C9455010C94550188
:1000A0000C9455010C9455010C9455010C94550178
:1000B0000C9455010C9455010C9455010C94550168
:1000C0000C9455010C9455010C9455010C94550158
:1000D0000C9455010C9455010C9443070C9419078A
:1000E0000C9455010C94BA040C945F030C94FB021D
:1000F0000C941D030C94EC020C94D9070C94BF02D1
:100100000C94AC030C940F03456E6420746167205B
:100110006E6F7420666F756E64004E6F2074616739
:1001200020666F756E64003E3E3E2054494D454F3B
:100130005554203E3E3E000D0A0053444B20766548
:100140007273696F6E3A0041542B474D520041540F
:100150002B4357444843503D312C310041542B43ED
:10016000574155544F434F4E4E3D300041542B4361
:10017000495044494E464F3D310041542B4349506C
:100180004D55583D310041542B43574D4F44453D4B
:100190003100415445300041542B52535400496EB4
:1001A0006974696C697A6174696F6E2073756363D1
:1001B00065737366756C202D005761726E696E678A
:1001C0003A20556E737570706F727465642066693D
:1001D000726D776172650043616E6E6F7420696E37
:1001E000697469616C697A6520455350206D6F644C
:1001F000756C6500415400496E697469616C697A77
:10020000696E6720455350206D6F64756C65000DF5
:100210000A005354415455533A0041542B4349501A
:100220005354415455530022003A5354414D4143D5
:100230002C220041542B43494653520041542B4336
:10024000574C41500000D90711241FBECFEFD1E217
:10025000DEBFCDBF00E00CBF26E0A8E9B4E001C0DE
:100260001D92AF34B207E1F714E0A0E0B2E0EAEF8C
:10027000FCE100E00BBF02C007900D92A839B10766
:10028000D9F711E0C4E2D1E000E006C021970109EE
:10029000802FFE010E94380DC332D10780E008078D
:1002A000A9F70E9480080C947B0E0C940000FC01BE
:1002B000A089B18982E08C93A485B5851C92A6851E
:1002C000B78580E18C93108EA489B58986E08C93E4
:1002D000A289B3898C9180618C93A289B3898C9116
:1002E00088608C93A289B3898C9180688C930288F2
:1002F000F389E02D80818F7D808308958091DF04D4
:100300009091E004DC01ED91FC910084F185E02DF9
:1003100019951816190664F48091DF049091E00491
:10032000DC01ED91FC910284F385E02D1995E6CF77
:1003300008953FB7F8948091DB049091DC04A0917C
:10034000DD04B091DE0426B5A89B05C02F3F19F04F
:100350000196A11DB11D3FBFBA2FA92F982F882745
:10036000BC01CD01620F711D811D911D42E0660F20
:10037000771F881F991F4A95D1F708958F929F92F2
:10038000AF92BF92CF92DF92EF92FF924B015C014E
:100390000E9499016B017C010E9499016C197D09F1
:1003A0008E099F09683E734081059105A8F321E0FD
:1003B000821A9108A108B10888EEC80E83E0D81E01
:1003C000E11CF11C81149104A104B10429F7FF90F0
:1003D000EF90DF90CF90BF90AF909F908F90089557
:1003E0002FB7F8946091D7047091D8048091D90404
:1003F0009091DA042FBF08950F931F93CF93DF934B
:10040000EC010E94F001688779878A879B87E881E1
:10041000F9810484F585E02DCE01199597FF15C06B
:100420000E94F001088519852A853B85601B710BA8
:10043000820B930B0C811D812E813F816017710708
:100440008207930720F38FEF9FEFDF91CF911F91EA
:100450000F910895BF92CF92DF92EF92FF920F9388
:100460001F93CF93DF938C01C8010E94FC01EC0124
:1004700097FD5DC0D801ED91FC910284F385E02DDC
:100480008D32910521F0C0970A9708F04AC0C12C1F
:10049000D12C7601B12CC130D105D9F0CD32D105A6
:1004A00009F442C0CE01C0970A9798F4AAE0B0E0E0
:1004B000A70196010E941E0D6E01DD0FEE08FF08D8
:1004C000C60ED71EE81EF91EB0E3CB1AD108E1080C
:1004D000F108D801ED91FC910284F385E02DC8016B
:1004E0001995C8010E94FC01EC01C0970A9798F287
:1004F000C130D10581F2BB2041F0F094E094D0945A
:10050000C094C11CD11CE11CF11CC701B601DF91D4
:10051000CF911F910F91FF90EF90DF90CF90BF9000
:100520000895C8011995A0CFBB24B394D2CFC12C94
:10053000D12C7601EACFEF92FF920F931F93CF93C6
:10054000DF938C017B01D0E0C0E0F701EC0FFD1FD1
:100550006491662361F0D801ED91FC910190F081E6
:10056000E02DC8011995892B11F02196EECFCE010F
:10057000DF91CF911F910F91FF90EF900895AF926F
:10058000BF92CF92DF92EF92FF920F931F93CF9380
:10059000DF936C017B018B01040F151FEB015E01E2
:1005A000AE18BF08C017D10759F06991D601ED9177
:1005B000FC910190F081E02DC6011995892B79F706
:1005C000C501DF91CF911F910F91FF90EF90DF90C8
:1005D000CF90BF90AF900895FC01538D448D252F8F
:1005E00030E0842F90E0821B930B541710F0CF96CD
:1005F000089501970895FC01918D828D981761F0FF
:10060000A28DAE0FBF2FB11D5D968C91928D9F5F15
:100610009F73928F90E008958FEF9FEF0895FC01F4
:10062000918D828D981731F0828DE80FF11D858DA7
:1006300090E008958FEF9FEF0895FC01918D228D3A
:10064000892F90E0805C9F4F821B91098F739927BF
:10065000089581EE94E00E941D0321E0892B09F4A6
:1006600020E0822F08958EE795E00E941D0321E08F
:10067000892B09F420E0822F0895FC01A48DA80F96
:10068000B92FB11DA35ABF4F2C91848D90E00196D4
:100690008F739927848FA689B7892C93A089B189F4
:1006A0008C91837080648C93938D848D981306C095
:1006B0000288F389E02D80818F7D80830895EF92F9
:1006C000FF920F931F93CF93DF93EC0181E0888F0C
:1006D0009B8D8C8D98131AC0E889F989808185FFDC
:1006E00015C09FB7F894EE89FF896083E889F9897E
:1006F00080818370806480839FBF81E090E0DF9180
:10070000CF911F910F91FF90EF900895F62E0B8DD2
:1007100010E00F5F1F4F0F731127E02E8C8D8E118D
:100720000CC00FB607FCFACFE889F989808185FFF4
:10073000F5CFCE010E943D03F1CFEB8DEC0FFD2FE5
:10074000F11DE35AFF4FF0829FB7F8940B8FEA89AF
:10075000FB8980818062CFCFCF93DF93EC01888DBE
:100760008823B9F0AA89BB89E889F9898C9185FD2C
:1007700003C0808186FD0DC00FB607FCF7CF8C91BA
:1007800085FFF2CF808185FFEDCFCE010E943D0332
:10079000E9CFDF91CF91089580E090E0892B29F097
:1007A0000E94330381110E94000080E090E0892BB9
:1007B00049F080E090E0892B29F00E94000081112F
:1007C0000E94000080E090E0892B49F080E090E0FA
:1007D000892B29F00E94000081110E94000080E016
:1007E00090E0892B29F00E94290381110C940000CC
:1007F0000895FC0101900020E9F731979F01281B23
:10080000390BE0912106F0912206E21BF30B409197
:100810001D0650911E06E417F50730F460911B0683
:1008200070911C06E60FF71F280F391F60911F06F5
:1008300070912006DC018217930758F40196BC9151
:10084000A081BA1308C03196E617F70799F7FA01A5
:10085000F1CF81E0089580E00895FB010190002030
:10086000E9F73197AF01461B570BDC01ED91FC9185
:100870000280F381E02D19948F929F92AF92BF92E4
:10088000EF92FF920F931F93CF93DF93CDB7DEB715
:10089000A1970FB6F894DEBF0FBECDBF7C01FA0161
:1008A000CB0119A2223008F42AE08E010F5D1F4F00
:1008B000822E912CB12CA12CBF01A50194010E9484
:1008C000FC0CF901CA016A300CF5605DD8016E9329
:1008D0008D01232B242B252B79F790E080E01097B6
:1008E00021F0BD01C7010E942D04A1960FB6F89416
:1008F000DEBF0FBECDBFDF91CF911F910F91FF9053
:10090000EF90BF90AF909F908F900895695CDECF7D
:10091000CF92DF92EF92FF92CF93DF93AB01BC01B6
:1009200077FF1DC06A017C016DE28EE795E00E94B1
:100930005F03EC0144275527BA014C195D096E0984
:100940007F092AE08EE795E00E943C048C0F9D1FF2
:10095000DF91CF91FF90EF90DF90CF9008952AE044
:100960008EE795E0DF91CF91FF90EF90DF90CF90F1
:100970000C943C048F929F92AF92BF92CF92DF92E1
:10098000EF92FF920F931F93CF93DF937C01EB01C4
:100990006C0182E0C80ED11C4701E5E08E0E911C6F
:1009A00010E000E0F60141916F0150E070E060E07E
:1009B0002AE0CE010E943C045C01E881F9810190AB
:1009C000F081E02D6EE2CE0119958A0D9B1D080F76
:1009D000191FC814D90431F7F701458150E070E0C0
:1009E00060E02AE0CE010E943C04800F911FDF915D
:1009F000CF911F910F91FF90EF90DF90CF90BF901C
:100A0000AF909F908F9008950F931F93CF93DF9394
:100A10008C01D0E0C0E06115710519F00E942D0431
:100A2000EC016AE674E0C8010E942D048C0F9D1F42
:100A3000DF91CF911F910F9108950F931F93CF9343
:100A4000DF93EC010E949B028C016AE674E0CE0108
:100A50000E942D04800F911FDF91CF911F910F9164
:100A600008956115710511F00C942D0490E080E05B
:100A700008953F924F925F926F927F928F929F92D2
:100A8000AF92BF92CF92DF92EF92FF920F931F939C
:100A9000CF93DF936C012B01342E80911D06909132
:100AA0001E0690932206809321060E94F0014B01BE
:100AB0005C0166246A94762C0D2C000CEE08FF086D
:100AC0000E94F001681979098A099B096C157D0556
:100AD0008E059F0508F05BC08FEF6816780609F059
:100AE00056C08091DF049091E004DC01ED91FC910F
:100AF0000084F185E02D1995892B11F38091DF0495
:100B00009091E004DC01ED91FC910284F385E02DED
:100B10001995E0912106F0912206808380912106AB
:100B200090912206019690932206809321062091AF
:100B30001F06309120068217930740F080911D0612
:100B400090911E0690932206809321064114510431
:100B500041F0C2010E94F903882319F085E0682E54
:100B6000712C332009F4ACCF06E413E0D0E0C0E0F0
:100B7000F801819191918F010E94F903811105C0C3
:100B80002196C530D105A1F79BCF3E0199CF0E9498
:100B9000F001681979098A099B096C157D058E0594
:100BA0009F0560F068E673E08EE795E00E943105EE
:100BB00067E271E08EE795E00E941D05C301DF91B9
:100BC000CF911F910F91FF90EF90DF90CF90BF904A
:100BD000AF909F908F907F906F905F904F903F90DD
:100BE0000895CF93DF93EC010E947E01BE018091B6
:100BF000DF049091E0040E941D0541E070E060E098
:100C000088EE93E0DF91CF910C9439052F923F92BB
:100C10004F925F926F927F928F929F92AF92BF920C
:100C2000CF92DF92EF92FF920F931F93CF93DF93B8
:100C3000CDB7DEB74C013B015A01790128012DB631
:100C40003EB6CB010E94B50C01962DB73EB7281BCE
:100C5000390B0FB6F8943EBF0FBE2DBF8DB79EB7B0
:100C600001966C01B3010E94AE0CC5010E94B50C47
:100C70000196EDB7FEB7E81BF90B0FB6F894FEBF6F
:100C80000FBEEDBF0DB71EB70F5F1F4FB501C801F7
:100C90000E94AE0CF70110820E947E01B401809187
:100CA000DF049091E0040E941D0541E0B60188EE4A
:100CB00093E00E9439058530910509F065C0809167
:100CC0001D0690911E069093220680932106409166
:100CD0001B0650911C064F5F5F4F70E060E00E9462
:100CE000650E41E0B80184EF91E00E943905059757
:100CF000E9F5A20141505109F80101900020E9F7FE
:100D00003197E01BF10B60911D0670911E068091DA
:100D1000210690912206861B970B8E1B9F0B48176E
:100D2000590708F0AC01C7010E946C0E41E070E069
:100D300060E080ED97E00E94390581E00FB6F894FD
:100D40003EBE0FBE2DBEDF91CF911F910F91FF9040
:100D5000EF90DF90CF90BF90AF909F908F907F905B
:100D60006F905F904F903F902F90089568E673E0EA
:100D70008EE795E00E94310568E071E08EE795E02E
:100D80000E941D0580E0DACF0597E0F368E673E086
:100D90008EE795E00E9431056AE171E0EFCF1F9286
:100DA0000F920FB60F9211242F933F938F939F931F
:100DB000AF93BF938091D7049091D804A091D904A8
:100DC000B091DA043091D60423E0230F2D3758F583
:100DD0000196A11DB11D2093D6048093D704909352
:100DE000D804A093D904B093DA048091DB049091E5
:100DF000DC04A091DD04B091DE040196A11DB11DBB
:100E00008093DB049093DC04A093DD04B093DE04B4
:100E1000BF91AF919F918F913F912F910F900FBEF6
:100E20000F901F90189526E8230F0296A11DB11D63
:100E3000D2CF1F920F920FB60F9211240BB60F92C2
:100E40002F933F934F935F936F937F938F939F93D2
:100E5000AF93BF93EF93FF9381EE94E00E943D0325
:100E6000FF91EF91BF91AF919F918F917F916F9182
:100E70005F914F913F912F910F900BBE0F900FBE3E
:100E80000F901F9018951F920F920FB60F9211247A
:100E90000BB60F922F938F939F93EF93FF93E09155
:100EA000F104F091F2048081E091F704F091F804EC
:100EB00082FD1DC090818091FA048F5F8F73209115
:100EC000FB04821741F0E091FA04F0E0EF51FB4F90
:100ED000958F8093FA04FF91EF919F918F912F91BD
:100EE0000F900BBE0F900FBE0F901F901895808132
:100EF000F2CF1F920F920FB60F9211240BB60F92E2
:100F00002F933F934F935F936F937F938F939F9311
:100F1000AF93BF93EF93FF938EE795E00E943D035D
:100F2000FF91EF91BF91AF919F918F917F916F91C1
:100F30005F914F913F912F910F900BBE0F900FBE7D
:100F40000F901F9018951F920F920FB60F921124B9
:100F50000BB60F922F938F939F93EF93FF93E09194
:100F60008E05F0918F058081E0919405F0919505B3
:100F700082FD1DC09081809197058F5F8F732091B6
:100F80009805821741F0E0919705F0E0E258FA4F9A
:100F9000958F80939705FF91EF919F918F912F915E
:100FA0000F900BBE0F900FBE0F901F901895808171
:100FB000F2CF0F931F93CF93DF93E1EEF4E0138210
:100FC000128248EE53E060E070E04483558366830C
:100FD000778384E593E09183808325E331E035874F
:100FE000248724E331E03787268720E331E0318B03
:100FF000208B21E331E0338B228B22E331E0358BF0
:10100000248B26E331E0378B268B118E128E138EC4
:10101000148EEEE7F5E013821282448355836683D3
:1010200077839183808385EC90E09587848784EC37
:1010300090E09787868780EC90E0918B808B81ECA5
:1010400090E0938B828B82EC90E0958B848B86EC86
:1010500090E0978B868B118E128E138E148EE3E2A6
:10106000F6E0C6E6D3E0D183C083128213821482F5
:1010700015820BE116E080E290E0F8019183808315
:1010800081E290E00E94400DF801938382839C01ED
:10109000205E3F4F358324839783868321E2FC01C2
:1010A00011922A95E9F7E9E2F6E0D183C083128232
:1010B000138214821582EFE2F6E0D183C08312829C
:1010C000138214821582E5E3F6E0D183C083128295
:1010D000138214821582EBE3F6E0D183C08312827F
:1010E000138214821582E1E4F6E0D183C083128278
:1010F000138214821582DF91CF911F910F91089571
:10110000CF93DF93CDB7DEB764970FB6F894DEBF09
:101110000FBECDBF789484B5826084BD84B58160F4
:1011200084BD85B5826085BD85B5816085BD8091B2
:101130006E00816080936E0010928100809181002A
:101140008260809381008091810081608093810022
:10115000809180008160809380008091B1008460E4
:101160008093B1008091B00081608093B000809145
:1011700091008260809391008091910081608093C2
:101180009100809190008160809390008091A100F7
:1011900082608093A1008091A10081608093A10072
:1011A0008091A00081608093A000809121018260E5
:1011B00080932101809121018160809321018091A0
:1011C000200181608093200180917A008460809367
:1011D0007A0080917A00826080937A0080917A0010
:1011E000816080937A0080917A00806880937A0091
:1011F0001092C1008EE795E00E94570181EE94E0C5
:101200000E94570168E673E08EE795E00E94310581
:1012100067EF71E08EE795E00E941D0581EE94E096
:101220009093E0048093DF0405E010E084EF91E008
:101230000E94F105892B09F4F3C168EE73E080E0A8
:1012400090E00E94BE010150110981F768E673E049
:101250008EE795E00E94310567ED71E08EE795E03D
:101260000E941D0568E873E180E090E03DC268E6F9
:1012700073E08EE795E00E9431056EE971E08EE73C
:1012800095E00E949B0260E274E08EE795E00E9488
:10129000310568E974E08EE795E00E9404050AE0F4
:1012A00010E0CE0101967C019C014FE052E062E12A
:1012B00072E08AE192E00E940606811107C063E7AE
:1012C00073E08EE795E00E940405FFCFEEE9F4E0BD
:1012D00086E0DF011D928A95E9F704E110E09701AD
:1012E00047E252E069E272E083E392E00E94060680
:1012F000882309F453C06DE174E0C7010E94BE0C5D
:1013000040E150E070E060E00E94770B6093A3043E
:101310006DE174E090E080E00E94BE0C40E150E09E
:1013200070E060E00E94770B6093A2046DE174E0CE
:1013300090E080E00E94BE0C40E150E070E060E090
:101340000E94770B6093A1046DE174E090E080E06F
:101350000E94BE0C40E150E070E060E00E94770B1C
:101360006093A0046DE174E090E080E00E94BE0C08
:1013700040E150E070E060E00E94770B60939F04D2
:101380006DE174E090E080E00E94BE0C40E150E02E
:1013900070E060E00E94770B60939E0486E0EEE9C7
:1013A000F4E0D70101900D928A95E1F76AE973E0C4
:1013B0008EE795E00E9431058E01095F1F4FF8010D
:1013C00082918F01803130F460EA73E08EE795E01E
:1013D0000E943105D8014C9150E070E060E020E1BE
:1013E0008EE795E00E943C04E016F10631F06DE1D5
:1013F00074E08EE795E00E943105E016F106F9F6FB
:101400006AE674E08EE795E00E942D0450E2452ED6
:1014100062EA73E08EE795E00E94040561EC73E0F8
:101420008EE795E00E9404050E947E016CE372E065
:101430008091DF049091E0040E941D0541E065ED7C
:1014400073E080E197E20E94390524EAC22E24E08D
:10145000D22E3CEC632E34E0732E40E0E42E42E0CA
:10146000F42E870143015601512C8530910509F076
:1014700053C08091DF049091E0040E942A02F4019D
:1014800061934F0141E06EED73E088EE93E00E94BE
:10149000390540E06EED73E088EE93E00E94390577
:1014A0000597C9F4D801E42D1D92EA95E9F76091FA
:1014B0001D0670911E064091210650912206461B82
:1014C000570B415051094032510510F04FE150E0A7
:1014D000C8010E946C0E41E060EE73E088EE93E07C
:1014E0000E9439058091DF049091E0040E942A0255
:1014F000D5016D937D938D939D935D0141E065EDE5
:1015000073E088EE93E00E943905005E1F4FB9E05A
:101510005B1611F05394A9CF019619F0FFEF5F12FB
:1015200007C062EE73E08EE795E00E940405FFCFEE
:1015300061E074E08EE795E00E943105652D052C91
:10154000000C770B880B990B0E9488046AE674E004
:101550008EE795E00E942D04812C912C5401052DDD
:10156000550C110B801691060CF051C0C501B40149
:101570000E9488046FE174E08EE795E00E943105D7
:10158000B7018EE795E00E94310562E274E08EE7D4
:1015900095E00E943105D6016D917D918D919D91CF
:1015A0006D010E9488046CE274E08EE795E00E9471
:1015B000310561E374E08EE795E00E943105F301A7
:1015C00081913F0163E474E08230A1F058F46CE44F
:1015D00074E0882379F06FE374E0813059F06EE5B0
:1015E00074E008C067E474E0833021F061E574E0E2
:1015F0008430A9F78EE795E00E940405FFEF8F1A6B
:101600009F0AAF0ABF0A20E2E20EF11CABCF60E1F5
:1016100077E280E090E00E94BE010E94CC03F8CE09
:1016200087E991E00E94F10568EB7BE080E090E0C3
:101630000E94BE010E947E0182E991E00E94F105B4
:1016400086E891E00E94F10568EC70E080E090E0AF
:101650000E94BE018AE791E00E94F1058CE691E0CC
:101660000E94F1058CE591E00E94F1058EE491E085
:101670000E94F10568EC70E080E090E00E94BE01FD
:101680001092980406E010E028E934E047E351E0C6
:101690006AE371E087E491E00E9406068091980475
:1016A0008153823028F4809199048E3209F4DFCD81
:1016B00068E673E08EE795E00E94310569EB71E022
:1016C0008EE795E00E949B0260E274E08EE795E071
:1016D0000E94310568E974E08EE795E00E940405F8
:1016E00060EA7FE080E090E00E94BE01D8CD3F92AA
:1016F0004F925F926F927F928F929F92AF92BF9222
:10170000CF92DF92EF92FF920F931F93CF93DF93CD
:101710005C016B017A016115710519F0FB01918380
:101720008083E114F10451F0C7010297839730F0F0
:1017300040E030E020E090E06BC05E01E5012196E2
:10174000F5011081812F90E00E94A50C892BA9F74B
:101750001D3201F52196F501118101E0E114F1043A
:1017600009F4E6C0F0E1EF16F10409F088C0103387
:1017700059F488818F7D883509F07CC019812296C3
:101780000260F0E1EF2EF12C812C912CA12C88E04D
:10179000B82E92C01B3221F4E5012296F501118189
:1017A00000E0DCCFEAE0EE16F10409F4C7C0F0E196
:1017B000EF16F10409F073C0E7CF78E0E72EF12CC3
:1017C000812C912CA12C60E1B62E76C021E0ADC019
:1017D000302F3170C114D10431F0222371F12197DF
:1017E000F601D183C08327FF2EC060E070E080E067
:1017F00090E8311104C06FEF7FEF8FEF9FE722E297
:1018000030E030934A0620934906462F372F282F81
:10181000642F732F822FDF91CF911F910F91FF9033
:10182000EF90DF90CF90BF90AF909F908F907F9080
:101830006F905F904F903F90089501FF04C02297F2
:10184000F601D183C083332341F090958095709544
:1018500061957F4F8F4F9F4FD8CF97FFD6CF82E2B2
:1018600090E090934A06809349066FEF7FEF8FEFE9
:101870009FE7CBCF10E3E114F10409F49ECF28E0F9
:10188000E216F10409F49CCF0CF08CCF812C912C42
:10189000A12CE0E4BE2E82E0E816F10469F060E0DD
:1018A00070E080E090E897010F2C000C440B550B82
:1018B0000E94FC0C49015A0120E060E070E0CB017D
:1018C00027010F2C000C66087708FE0150ED352E1D
:1018D000310E39E0331570F43FEB310F49EC342E03
:1018E0003A3138F03FE9310F3A3108F071CF39EA37
:1018F000332E310E3E141F040CF06ACF27FD15C0A5
:1019000086169706A806B90678F0A30192010E94F0
:10191000EC0C630D711D811D911D613071058105F8
:1019200020E8920708F452CF2FEF21961081CDCFF7
:10193000103309F41ECF2AE0E22EF12C9CEC892E04
:10194000982CA82C9CE0B92EB7CF91110C94E90CDF
:10195000803219F089508550C8F70895FB01DC01E9
:1019600005900D920020E1F70895FC0105900020FC
:10197000E9F7809590958E0F9F1F089547E456E0F4
:101980000C94C20CFA01A191B081009719F4109740
:10199000E1F0CD01DC01CD010D90002011F4C0017A
:1019A00013C0FB012191222319F02015D9F7F3CFA1
:1019B000FB012191201519F41E92119606C02223D5
:1019C000C1F70D900020A1F7D001FA01A193B083D7
:1019D0000895992788270895DB018F939F930E948C
:1019E0001E0DBF91AF91A29F800D911DA39F900DE1
:1019F000B29F900D11240895A1E21A2EAA1BBB1BC1
:101A0000FD010DC0AA1FBB1FEE1FFF1FA217B307CA
:101A1000E407F50720F0A21BB30BE40BF50B661FE0
:101A2000771F881F991F1A9469F7609570958095A4
:101A300090959B01AC01BD01CF0108950E94290D35
:101A4000A59F900DB49F900DA49F800D911D112412
:101A50000895A29FB001B39FC001A39F700D811D87
:101A60001124911DB29F700D811D1124911D0895A7
:101A7000EE0FFF1F881F8BBF0790F691E02D199482
:101A80000F931F93CF93DF938230910510F482E080
:101A900090E0E0914D06F0914E0630E020E0B0E09D
:101AA000A0E0309799F42115310509F44AC0281BAC
:101AB000390B24303105D8F58A819B816115710578
:101AC00089F1FB0193838283FE0111C04081518122
:101AD0000281138148175907E0F04817590799F414
:101AE000109761F012960C93129713961C933296EE
:101AF000CF01DF91CF911F910F91089500934D0673
:101B000010934E06F4CF2115310551F042175307BB
:101B100038F0A901DB019A01BD01DF01F801C1CF55
:101B2000EF01F9CF90934E0680934D06CDCFFE0185
:101B3000E20FF31F81939193225031093983288357
:101B4000D7CF20914B0630914C06232B41F42091A6
:101B500042033091430330934C0620934B0620916F
:101B60004003309141032115310541F42DB73EB7B3
:101B70004091440350914503241B350BE0914B06E3
:101B8000F0914C06E217F307A0F42E1B3F0B281729
:101B9000390778F0AC014E5F5F4F2417350748F0E6
:101BA0004E0F5F1F50934C0640934B0681939193C9
:101BB0009FCFF0E0E0E09CCFCF93DF930097E9F078
:101BC000FC01329713821282A0914D06B0914E060D
:101BD000ED0130E020E01097A1F420813181820FE7
:101BE000931F20914B0630914C062817390709F0B6
:101BF00061C0F0934C06E0934B06DF91CF910895BE
:101C0000EA01CE17DF07E8F54A815B819E014115A5
:101C10005105B1F7E901FB83EA8349915991C40F5A
:101C2000D51FEC17FD0761F4808191810296840F26
:101C3000951FE90199838883828193819B838A839D
:101C4000F0E0E0E012968D919C9113970097B9F522
:101C50002D913C911197CD010296820F931F2091F7
:101C60004B0630914C062817390739F6309751F555
:101C700010924E0610924D06B0934C06A0934B0660
:101C8000BCCFD383C28340815181840F951FC81775
:101C9000D90761F44E5F5F4F88819981480F591FC2
:101CA000518340838A819B819383828321153105EF
:101CB00009F0B0CFF0934E06E0934D069ECFFD01A4
:101CC000DC01C0CF13821282D7CFDC0101C06D933B
:101CD00041505040E0F70895FB01DC014150504075
:101CE00048F001900D920020C9F701C01D924150AB
:0A1CF0005040E0F70895F894FFCF8C
:101CFA0031000000000000000000000000000000A9
:101D0A0000000000000000000000000000000000C9
:101D1A003200000000000000000000000000000087
:101D2A0000000000000000000000000000000000A9
:101D3A003300000000000000000000000000000066
:101D4A000000000000000000000000000000000089
:101D5A003400000000000000000000000000000045
:101D6A000000000000000000000000000000000069
:101D7A003500000000000000000000000000000024
:101D8A000000000000000000000000000000000049
:101D9A000000000000000000000000000000000039
:101DAA000000000000000000000000000000000029
:101DBA000000000000000000000000000000000019
:101DCA000000000000000000000000000000000009
:101DDA0000000000000000000000000000000000F9
:101DEA0000000000000000000000000000000000E9
:101DFA0000000000000000000000000000000000D9
:101E0A0000000000000000000000000000000000C8
:101E1A0000000000000000000000000000000000B8
:101E2A0000000000000000000000000000000000A8
:101E3A0000004F06800066046D04770480048C0459
:101E4A00000000005F03BF02EC02AC031D03FB02AB
:101E5A000F0300000000BA045B57694669457370B6
:101E6A005D2000436F6D6D756E69636174696F6E95
:101E7A0020776974682057694669206D6F64756CAC
:101E8A0065206661696C656421004D41433A200012
:101E9A0030005363616E6E696E6720617661696CAA
:101EAA0061626C65206E6574776F726B732E2E2E6D
:101EBA00002A2A205363616E204E6574776F726B15
:101ECA0073202A2A002B43574C41503A28002200FB
:101EDA002C00436F756C646E2774206765742061EB
:101EEA00207769666920636F6E6E656374696F6EC9
:101EFA00006E756D626572206F6620617661696C2D
:101F0A0061626C65206E6574776F726B733A002933
:101F1A002000095369676E616C3A20002064426DA3
:101F2A000009456E6372797074696F6E3A200057C2
:101F3A004550005750410057504132004E6F6E6570
:101F4A000057504120575041322050534B00556E94
:101F5A006B6E6F776E000D0A4F4B0D0A000D0A4526
:101F6A0052524F520D0A000D0A4641494C0D0A00C1
:101F7A000D0A53454E44204F4B0D0A0020434F4E45
:081F8A004E4543540D0A00000E
:00000001FF
